{
  "_format": "hh-sol-artifact-1",
  "contractName": "TokenContract",
  "sourceName": "contracts/index.sol",
  "abi": [
    {
      "inputs": [],
      "stateMutability": "nonpayable",
      "type": "constructor"
    },
    {
      "anonymous": false,
      "inputs": [
        {
          "indexed": true,
          "internalType": "address",
          "name": "userAddress",
          "type": "address"
        },
        {
          "indexed": false,
          "internalType": "uint256",
          "name": "index",
          "type": "uint256"
        },
        {
          "indexed": false,
          "internalType": "string",
          "name": "post",
          "type": "string"
        }
      ],
      "name": "LogNewUser",
      "type": "event"
    },
    {
      "anonymous": false,
      "inputs": [
        {
          "indexed": true,
          "internalType": "address",
          "name": "userAddress",
          "type": "address"
        },
        {
          "indexed": false,
          "internalType": "uint256",
          "name": "index",
          "type": "uint256"
        },
        {
          "indexed": false,
          "internalType": "string",
          "name": "post",
          "type": "string"
        }
      ],
      "name": "LogUpdateUser",
      "type": "event"
    },
    {
      "inputs": [],
      "name": "MessBalance",
      "outputs": [
        {
          "components": [
            {
              "internalType": "address",
              "name": "iid",
              "type": "address"
            },
            {
              "internalType": "uint256",
              "name": "balance",
              "type": "uint256"
            },
            {
              "internalType": "bool",
              "name": "refund",
              "type": "bool"
            },
            {
              "internalType": "bool",
              "name": "transfer",
              "type": "bool"
            }
          ],
          "internalType": "struct TokenContract.Token",
          "name": "",
          "type": "tuple"
        }
      ],
      "stateMutability": "view",
      "type": "function"
    },
    {
      "inputs": [
        {
          "internalType": "uint256",
          "name": "i",
          "type": "uint256"
        }
      ],
      "name": "UserBalance",
      "outputs": [
        {
          "components": [
            {
              "internalType": "address",
              "name": "iid",
              "type": "address"
            },
            {
              "internalType": "uint256",
              "name": "balance",
              "type": "uint256"
            },
            {
              "internalType": "bool",
              "name": "refund",
              "type": "bool"
            },
            {
              "internalType": "bool",
              "name": "transfer",
              "type": "bool"
            }
          ],
          "internalType": "struct TokenContract.Token",
          "name": "",
          "type": "tuple"
        }
      ],
      "stateMutability": "view",
      "type": "function"
    },
    {
      "inputs": [
        {
          "internalType": "uint256",
          "name": "id",
          "type": "uint256"
        }
      ],
      "name": "chooserefund",
      "outputs": [
        {
          "internalType": "string",
          "name": "",
          "type": "string"
        }
      ],
      "stateMutability": "nonpayable",
      "type": "function"
    },
    {
      "inputs": [
        {
          "internalType": "uint256",
          "name": "id",
          "type": "uint256"
        }
      ],
      "name": "choosetransfer",
      "outputs": [
        {
          "internalType": "string",
          "name": "",
          "type": "string"
        }
      ],
      "stateMutability": "nonpayable",
      "type": "function"
    },
    {
      "inputs": [],
      "name": "deployer",
      "outputs": [
        {
          "internalType": "address",
          "name": "",
          "type": "address"
        }
      ],
      "stateMutability": "view",
      "type": "function"
    },
    {
      "inputs": [],
      "name": "getAllPosts",
      "outputs": [
        {
          "internalType": "string[]",
          "name": "",
          "type": "string[]"
        }
      ],
      "stateMutability": "view",
      "type": "function"
    },
    {
      "inputs": [],
      "name": "getAlladdreses",
      "outputs": [
        {
          "internalType": "address[]",
          "name": "",
          "type": "address[]"
        }
      ],
      "stateMutability": "view",
      "type": "function"
    },
    {
      "inputs": [],
      "name": "getUser",
      "outputs": [
        {
          "internalType": "string",
          "name": "post",
          "type": "string"
        },
        {
          "internalType": "uint256",
          "name": "index",
          "type": "uint256"
        }
      ],
      "stateMutability": "view",
      "type": "function"
    },
    {
      "inputs": [],
      "name": "getUserCount",
      "outputs": [
        {
          "internalType": "uint256",
          "name": "count",
          "type": "uint256"
        }
      ],
      "stateMutability": "view",
      "type": "function"
    },
    {
      "inputs": [
        {
          "internalType": "uint256",
          "name": "index",
          "type": "uint256"
        }
      ],
      "name": "getUserposts",
      "outputs": [
        {
          "internalType": "string",
          "name": "post",
          "type": "string"
        }
      ],
      "stateMutability": "view",
      "type": "function"
    },
    {
      "inputs": [
        {
          "internalType": "address",
          "name": "_raw",
          "type": "address"
        }
      ],
      "name": "hellothere",
      "outputs": [],
      "stateMutability": "nonpayable",
      "type": "function"
    },
    {
      "inputs": [
        {
          "internalType": "uint256",
          "name": "",
          "type": "uint256"
        }
      ],
      "name": "identity",
      "outputs": [
        {
          "internalType": "address",
          "name": "",
          "type": "address"
        }
      ],
      "stateMutability": "view",
      "type": "function"
    },
    {
      "inputs": [
        {
          "internalType": "string",
          "name": "post",
          "type": "string"
        }
      ],
      "name": "insertUser",
      "outputs": [
        {
          "internalType": "uint256",
          "name": "index",
          "type": "uint256"
        }
      ],
      "stateMutability": "nonpayable",
      "type": "function"
    },
    {
      "inputs": [
        {
          "internalType": "address",
          "name": "userAddress",
          "type": "address"
        }
      ],
      "name": "isUser",
      "outputs": [
        {
          "internalType": "bool",
          "name": "isIndeed",
          "type": "bool"
        }
      ],
      "stateMutability": "view",
      "type": "function"
    },
    {
      "inputs": [
        {
          "internalType": "address",
          "name": "studentId",
          "type": "address"
        },
        {
          "internalType": "uint256",
          "name": "tokenBalance",
          "type": "uint256"
        }
      ],
      "name": "issue",
      "outputs": [],
      "stateMutability": "nonpayable",
      "type": "function"
    },
    {
      "inputs": [],
      "name": "owner",
      "outputs": [
        {
          "internalType": "address",
          "name": "",
          "type": "address"
        }
      ],
      "stateMutability": "view",
      "type": "function"
    },
    {
      "inputs": [],
      "name": "postIdCount",
      "outputs": [
        {
          "internalType": "uint256",
          "name": "",
          "type": "uint256"
        }
      ],
      "stateMutability": "view",
      "type": "function"
    },
    {
      "inputs": [],
      "name": "raw",
      "outputs": [
        {
          "internalType": "address",
          "name": "",
          "type": "address"
        }
      ],
      "stateMutability": "view",
      "type": "function"
    },
    {
      "inputs": [],
      "name": "readAlltokens",
      "outputs": [
        {
          "components": [
            {
              "internalType": "address",
              "name": "iid",
              "type": "address"
            },
            {
              "internalType": "uint256",
              "name": "balance",
              "type": "uint256"
            },
            {
              "internalType": "bool",
              "name": "refund",
              "type": "bool"
            },
            {
              "internalType": "bool",
              "name": "transfer",
              "type": "bool"
            }
          ],
          "internalType": "struct TokenContract.Token[]",
          "name": "",
          "type": "tuple[]"
        }
      ],
      "stateMutability": "view",
      "type": "function"
    },
    {
      "inputs": [
        {
          "internalType": "address",
          "name": "_user",
          "type": "address"
        }
      ],
      "name": "setMyStateVariable",
      "outputs": [],
      "stateMutability": "nonpayable",
      "type": "function"
    },
    {
      "inputs": [
        {
          "internalType": "uint256",
          "name": "",
          "type": "uint256"
        }
      ],
      "name": "tokens",
      "outputs": [
        {
          "internalType": "address",
          "name": "iid",
          "type": "address"
        },
        {
          "internalType": "uint256",
          "name": "balance",
          "type": "uint256"
        },
        {
          "internalType": "bool",
          "name": "refund",
          "type": "bool"
        },
        {
          "internalType": "bool",
          "name": "transfer",
          "type": "bool"
        }
      ],
      "stateMutability": "view",
      "type": "function"
    },
    {
      "inputs": [
        {
          "internalType": "uint256",
          "name": "id",
          "type": "uint256"
        },
        {
          "internalType": "uint256",
          "name": "tokenAmount",
          "type": "uint256"
        }
      ],
      "name": "transferToken",
      "outputs": [],
      "stateMutability": "nonpayable",
      "type": "function"
    },
    {
      "inputs": [
        {
          "internalType": "string",
          "name": "post",
          "type": "string"
        }
      ],
      "name": "updatepost",
      "outputs": [
        {
          "internalType": "bool",
          "name": "success",
          "type": "bool"
        }
      ],
      "stateMutability": "nonpayable",
      "type": "function"
    }
  ],
  "bytecode": "0x6080604052600060015534801561001557600080fd5b50336000806101000a81548173ffffffffffffffffffffffffffffffffffffffff021916908373ffffffffffffffffffffffffffffffffffffffff160217905550613145806100656000396000f3fe608060405234801561001057600080fd5b506004361061014d5760003560e01c80637788dc69116100c3578063ac37eebb1161007c578063ac37eebb146103dc578063b5cb15f71461040c578063c096a6321461042a578063d5f3948814610448578063ddd34cf614610466578063e74ad45d146104845761014d565b80637788dc69146102f3578063832880e714610323578063863912b614610342578063867904b4146103725780638da5cb5b1461038e5780639bc831b3146103ac5761014d565b8063362e871011610115578063362e871014610208578063374f5a66146102385780634209fff114610256578063453c75ee146102865780634f64b2be146102a257806352d05406146102d55761014d565b80630f2ed5f314610152578063112641b6146101825780631b88dba8146101b25780632e760746146101ce57806330561100146101ea575b600080fd5b61016c600480360381019061016791906121e2565b6104a2565b6040516101799190612244565b60405180910390f35b61019c6004803603810190610197919061228b565b6107bd565b6040516101a99190612337565b60405180910390f35b6101cc60048036038101906101c791906123b7565b610a53565b005b6101e860048036038101906101e391906123e4565b610a97565b005b6101f2610e2f565b6040516101ff9190612530565b60405180910390f35b610222600480360381019061021d91906121e2565b610fe0565b60405161022f919061256d565b60405180910390f35b6102406111f7565b60405161024d9190612646565b60405180910390f35b610270600480360381019061026b91906123b7565b611308565b60405161027d919061256d565b60405180910390f35b6102a0600480360381019061029b91906123b7565b6113d6565b005b6102bc60048036038101906102b7919061228b565b61141a565b6040516102cc9493929190612677565b60405180910390f35b6102dd611484565b6040516102ea919061272f565b60405180910390f35b61030d6004803603810190610308919061228b565b611545565b60405161031a9190612337565b60405180910390f35b61032b6117db565b60405161033992919061274a565b60405180910390f35b61035c6004803603810190610357919061228b565b6119a6565b6040516103699190612337565b60405180910390f35b61038c6004803603810190610387919061277a565b611aff565b005b610396611d77565b6040516103a391906127ba565b60405180910390f35b6103c660048036038101906103c1919061228b565b611d9d565b6040516103d3919061272f565b60405180910390f35b6103f660048036038101906103f1919061228b565b611e60565b60405161040391906127ba565b60405180910390f35b610414611e93565b6040516104219190612244565b60405180910390f35b610432611ea0565b60405161043f91906127ba565b60405180910390f35b610450611ec6565b60405161045d91906127ba565b60405180910390f35b61046e611eea565b60405161047b91906128d9565b60405180910390f35b61048c612040565b6040516104999190612244565b60405180910390f35b6000600760009054906101000a900473ffffffffffffffffffffffffffffffffffffffff1673ffffffffffffffffffffffffffffffffffffffff163373ffffffffffffffffffffffffffffffffffffffff16146104fe57600080fd5b610529600760009054906101000a900473ffffffffffffffffffffffffffffffffffffffff16611308565b15610569576040517f08c379a000000000000000000000000000000000000000000000000000000000815260040161056090612947565b60405180910390fd5b8160056000600760009054906101000a900473ffffffffffffffffffffffffffffffffffffffff1673ffffffffffffffffffffffffffffffffffffffff1673ffffffffffffffffffffffffffffffffffffffff16815260200190815260200160002060000190816105da9190612b73565b5060068054905060056000600760009054906101000a900473ffffffffffffffffffffffffffffffffffffffff1673ffffffffffffffffffffffffffffffffffffffff1673ffffffffffffffffffffffffffffffffffffffff168152602001908152602001600020600101819055506006600760009054906101000a900473ffffffffffffffffffffffffffffffffffffffff169080600181540180825580915050600190039060005260206000200160009091909190916101000a81548173ffffffffffffffffffffffffffffffffffffffff021916908373ffffffffffffffffffffffffffffffffffffffff160217905550600760009054906101000a900473ffffffffffffffffffffffffffffffffffffffff1673ffffffffffffffffffffffffffffffffffffffff167f1ebf925978e1982ddb1157dbd639436963b5345ccf86d4828909346867d4ab1d60056000600760009054906101000a900473ffffffffffffffffffffffffffffffffffffffff1673ffffffffffffffffffffffffffffffffffffffff1673ffffffffffffffffffffffffffffffffffffffff168152602001908152602001600020600101548460405161079c929190612c45565b60405180910390a260016006805490506107b69190612ca4565b9050919050565b60603373ffffffffffffffffffffffffffffffffffffffff16600460009054906101000a900473ffffffffffffffffffffffffffffffffffffffff1673ffffffffffffffffffffffffffffffffffffffff161461084f576040517f08c379a000000000000000000000000000000000000000000000000000000000815260040161084690612d4a565b60405180910390fd5b6000600260008481526020019081526020016000209050600073ffffffffffffffffffffffffffffffffffffffff168160000160009054906101000a900473ffffffffffffffffffffffffffffffffffffffff1673ffffffffffffffffffffffffffffffffffffffff16036108f9576040517f08c379a00000000000000000000000000000000000000000000000000000000081526004016108f090612ddc565b60405180910390fd5b60018160020160006101000a81548160ff02191690831515021790555060008160020160016101000a81548160ff02191690831515021790555080600260008581526020019081526020016000206000820160009054906101000a900473ffffffffffffffffffffffffffffffffffffffff168160000160006101000a81548173ffffffffffffffffffffffffffffffffffffffff021916908373ffffffffffffffffffffffffffffffffffffffff160217905550600182015481600101556002820160009054906101000a900460ff168160020160006101000a81548160ff0219169083151502179055506002820160019054906101000a900460ff168160020160016101000a81548160ff0219169083151502179055509050506040518060400160405280601581526020017f55706461746564207375636365737366756c6c79210000000000000000000000815250915050919050565b80600760006101000a81548173ffffffffffffffffffffffffffffffffffffffff021916908373ffffffffffffffffffffffffffffffffffffffff16021790555050565b3373ffffffffffffffffffffffffffffffffffffffff16600460009054906101000a900473ffffffffffffffffffffffffffffffffffffffff1673ffffffffffffffffffffffffffffffffffffffff1614610b27576040517f08c379a0000000000000000000000000000000000000000000000000000000008152600401610b1e90612d4a565b60405180910390fd5b60006002600084815260200190815260200160002090506000600260008081526020019081526020016000209050600073ffffffffffffffffffffffffffffffffffffffff168260000160009054906101000a900473ffffffffffffffffffffffffffffffffffffffff1673ffffffffffffffffffffffffffffffffffffffff1603610be8576040517f08c379a0000000000000000000000000000000000000000000000000000000008152600401610bdf90612e48565b60405180910390fd5b8282600101541015610c2f576040517f08c379a0000000000000000000000000000000000000000000000000000000008152600401610c2690612eda565b60405180910390fd5b82826001016000828254610c439190612ca4565b9250508190555082816001016000828254610c5e9190612efa565b9250508190555081600260008681526020019081526020016000206000820160009054906101000a900473ffffffffffffffffffffffffffffffffffffffff168160000160006101000a81548173ffffffffffffffffffffffffffffffffffffffff021916908373ffffffffffffffffffffffffffffffffffffffff160217905550600182015481600101556002820160009054906101000a900460ff168160020160006101000a81548160ff0219169083151502179055506002820160019054906101000a900460ff168160020160016101000a81548160ff02191690831515021790555090505080600260008081526020019081526020016000206000820160009054906101000a900473ffffffffffffffffffffffffffffffffffffffff168160000160006101000a81548173ffffffffffffffffffffffffffffffffffffffff021916908373ffffffffffffffffffffffffffffffffffffffff160217905550600182015481600101556002820160009054906101000a900460ff168160020160006101000a81548160ff0219169083151502179055506002820160019054906101000a900460ff168160020160016101000a81548160ff02191690831515021790555090505050505050565b60606000600680549050905060008167ffffffffffffffff811115610e5757610e566120b7565b5b604051908082528060200260200182016040528015610e8a57816020015b6060815260200190600190039081610e755790505b50905060005b600680549050811015610fd7576005600060068381548110610eb557610eb4612f2e565b5b9060005260206000200160009054906101000a900473ffffffffffffffffffffffffffffffffffffffff1673ffffffffffffffffffffffffffffffffffffffff1673ffffffffffffffffffffffffffffffffffffffff1681526020019081526020016000206000018054610f2890612996565b80601f0160208091040260200160405190810160405280929190818152602001828054610f5490612996565b8015610fa15780601f10610f7657610100808354040283529160200191610fa1565b820191906000526020600020905b815481529060010190602001808311610f8457829003601f168201915b5050505050828281518110610fb957610fb8612f2e565b5b60200260200101819052508080610fcf90612f5d565b915050610e90565b50809250505090565b6000600760009054906101000a900473ffffffffffffffffffffffffffffffffffffffff1673ffffffffffffffffffffffffffffffffffffffff163373ffffffffffffffffffffffffffffffffffffffff161461103c57600080fd5b611067600760009054906101000a900473ffffffffffffffffffffffffffffffffffffffff16611308565b6110a6576040517f08c379a000000000000000000000000000000000000000000000000000000000815260040161109d90612ff1565b60405180910390fd5b8160056000600760009054906101000a900473ffffffffffffffffffffffffffffffffffffffff1673ffffffffffffffffffffffffffffffffffffffff1673ffffffffffffffffffffffffffffffffffffffff16815260200190815260200160002060000190816111179190612b73565b50600760009054906101000a900473ffffffffffffffffffffffffffffffffffffffff1673ffffffffffffffffffffffffffffffffffffffff167fbc232c89e6bb55205c8f3c3faa1ec2f0270a3023cab2b01cccec8996ff5d5bfe60056000600760009054906101000a900473ffffffffffffffffffffffffffffffffffffffff1673ffffffffffffffffffffffffffffffffffffffff1673ffffffffffffffffffffffffffffffffffffffff16815260200190815260200160002060010154846040516111e6929190612c45565b60405180910390a260019050919050565b60606000600680549050905060008167ffffffffffffffff81111561121f5761121e6120b7565b5b60405190808252806020026020018201604052801561124d5781602001602082028036833780820191505090505b50905060005b6006805490508110156112ff576006818154811061127457611273612f2e565b5b9060005260206000200160009054906101000a900473ffffffffffffffffffffffffffffffffffffffff168282815181106112b2576112b1612f2e565b5b602002602001019073ffffffffffffffffffffffffffffffffffffffff16908173ffffffffffffffffffffffffffffffffffffffff168152505080806112f790612f5d565b915050611253565b50809250505090565b6000806006805490500361131f57600090506113d1565b8173ffffffffffffffffffffffffffffffffffffffff166006600560008573ffffffffffffffffffffffffffffffffffffffff1673ffffffffffffffffffffffffffffffffffffffff168152602001908152602001600020600101548154811061138c5761138b612f2e565b5b9060005260206000200160009054906101000a900473ffffffffffffffffffffffffffffffffffffffff1673ffffffffffffffffffffffffffffffffffffffff161490505b919050565b80600460006101000a81548173ffffffffffffffffffffffffffffffffffffffff021916908373ffffffffffffffffffffffffffffffffffffffff16021790555050565b60026020528060005260406000206000915090508060000160009054906101000a900473ffffffffffffffffffffffffffffffffffffffff16908060010154908060020160009054906101000a900460ff16908060020160019054906101000a900460ff16905084565b61148c612046565b600260008081526020019081526020016000206040518060800160405290816000820160009054906101000a900473ffffffffffffffffffffffffffffffffffffffff1673ffffffffffffffffffffffffffffffffffffffff1673ffffffffffffffffffffffffffffffffffffffff168152602001600182015481526020016002820160009054906101000a900460ff161515151581526020016002820160019054906101000a900460ff161515151581525050905090565b60603373ffffffffffffffffffffffffffffffffffffffff16600460009054906101000a900473ffffffffffffffffffffffffffffffffffffffff1673ffffffffffffffffffffffffffffffffffffffff16146115d7576040517f08c379a00000000000000000000000000000000000000000000000000000000081526004016115ce90612d4a565b60405180910390fd5b6000600260008481526020019081526020016000209050600073ffffffffffffffffffffffffffffffffffffffff168160000160009054906101000a900473ffffffffffffffffffffffffffffffffffffffff1673ffffffffffffffffffffffffffffffffffffffff1603611681576040517f08c379a000000000000000000000000000000000000000000000000000000000815260040161167890612ddc565b60405180910390fd5b60018160020160016101000a81548160ff02191690831515021790555060008160020160006101000a81548160ff02191690831515021790555080600260008581526020019081526020016000206000820160009054906101000a900473ffffffffffffffffffffffffffffffffffffffff168160000160006101000a81548173ffffffffffffffffffffffffffffffffffffffff021916908373ffffffffffffffffffffffffffffffffffffffff160217905550600182015481600101556002820160009054906101000a900460ff168160020160006101000a81548160ff0219169083151502179055506002820160019054906101000a900460ff168160020160016101000a81548160ff0219169083151502179055509050506040518060400160405280601581526020017f55706461746564207375636365737366756c6c79210000000000000000000000815250915050919050565b6060600061180a600760009054906101000a900473ffffffffffffffffffffffffffffffffffffffff16611308565b611849576040517f08c379a000000000000000000000000000000000000000000000000000000000815260040161184090612ff1565b60405180910390fd5b60056000600760009054906101000a900473ffffffffffffffffffffffffffffffffffffffff1673ffffffffffffffffffffffffffffffffffffffff1673ffffffffffffffffffffffffffffffffffffffff16815260200190815260200160002060000160056000600760009054906101000a900473ffffffffffffffffffffffffffffffffffffffff1673ffffffffffffffffffffffffffffffffffffffff1673ffffffffffffffffffffffffffffffffffffffff1681526020019081526020016000206001015481805461191e90612996565b80601f016020809104026020016040519081016040528092919081815260200182805461194a90612996565b80156119975780601f1061196c57610100808354040283529160200191611997565b820191906000526020600020905b81548152906001019060200180831161197a57829003601f168201915b50505050509150915091509091565b606060068054905082106119ef576040517f08c379a00000000000000000000000000000000000000000000000000000000081526004016119e69061305d565b60405180910390fd5b6005600060068481548110611a0757611a06612f2e565b5b9060005260206000200160009054906101000a900473ffffffffffffffffffffffffffffffffffffffff1673ffffffffffffffffffffffffffffffffffffffff1673ffffffffffffffffffffffffffffffffffffffff1681526020019081526020016000206000018054611a7a90612996565b80601f0160208091040260200160405190810160405280929190818152602001828054611aa690612996565b8015611af35780601f10611ac857610100808354040283529160200191611af3565b820191906000526020600020905b815481529060010190602001808311611ad657829003601f168201915b50505050509050919050565b3373ffffffffffffffffffffffffffffffffffffffff1660008054906101000a900473ffffffffffffffffffffffffffffffffffffffff1673ffffffffffffffffffffffffffffffffffffffff1614611b8d576040517f08c379a0000000000000000000000000000000000000000000000000000000008152600401611b8490612d4a565b60405180910390fd5b60008054906101000a900473ffffffffffffffffffffffffffffffffffffffff1673ffffffffffffffffffffffffffffffffffffffff163373ffffffffffffffffffffffffffffffffffffffff1614611c1b576040517f08c379a0000000000000000000000000000000000000000000000000000000008152600401611c12906130ef565b60405180910390fd5b600060405180608001604052808473ffffffffffffffffffffffffffffffffffffffff1681526020018381526020016000151581526020016000151581525090508060026000600154815260200190815260200160002060008201518160000160006101000a81548173ffffffffffffffffffffffffffffffffffffffff021916908373ffffffffffffffffffffffffffffffffffffffff1602179055506020820151816001015560408201518160020160006101000a81548160ff02191690831515021790555060608201518160020160016101000a81548160ff0219169083151502179055509050508260036000600154815260200190815260200160002060006101000a81548173ffffffffffffffffffffffffffffffffffffffff021916908373ffffffffffffffffffffffffffffffffffffffff16021790555060016000815480929190611d6d90612f5d565b9190505550505050565b600760009054906101000a900473ffffffffffffffffffffffffffffffffffffffff1681565b611da5612046565b600260008381526020019081526020016000206040518060800160405290816000820160009054906101000a900473ffffffffffffffffffffffffffffffffffffffff1673ffffffffffffffffffffffffffffffffffffffff1673ffffffffffffffffffffffffffffffffffffffff168152602001600182015481526020016002820160009054906101000a900460ff161515151581526020016002820160019054906101000a900460ff1615151515815250509050919050565b60036020528060005260406000206000915054906101000a900473ffffffffffffffffffffffffffffffffffffffff1681565b6000600680549050905090565b600460009054906101000a900473ffffffffffffffffffffffffffffffffffffffff1681565b60008054906101000a900473ffffffffffffffffffffffffffffffffffffffff1681565b6060600060015467ffffffffffffffff811115611f0a57611f096120b7565b5b604051908082528060200260200182016040528015611f4357816020015b611f30612046565b815260200190600190039081611f285790505b50905060005b60015481101561203857600260008281526020019081526020016000206040518060800160405290816000820160009054906101000a900473ffffffffffffffffffffffffffffffffffffffff1673ffffffffffffffffffffffffffffffffffffffff1673ffffffffffffffffffffffffffffffffffffffff168152602001600182015481526020016002820160009054906101000a900460ff161515151581526020016002820160019054906101000a900460ff16151515158152505082828151811061201a57612019612f2e565b5b6020026020010181905250808061203090612f5d565b915050611f49565b508091505090565b60015481565b6040518060800160405280600073ffffffffffffffffffffffffffffffffffffffff168152602001600081526020016000151581526020016000151581525090565b6000604051905090565b600080fd5b600080fd5b600080fd5b600080fd5b6000601f19601f8301169050919050565b7f4e487b7100000000000000000000000000000000000000000000000000000000600052604160045260246000fd5b6120ef826120a6565b810181811067ffffffffffffffff8211171561210e5761210d6120b7565b5b80604052505050565b6000612121612088565b905061212d82826120e6565b919050565b600067ffffffffffffffff82111561214d5761214c6120b7565b5b612156826120a6565b9050602081019050919050565b82818337600083830152505050565b600061218561218084612132565b612117565b9050828152602081018484840111156121a1576121a06120a1565b5b6121ac848285612163565b509392505050565b600082601f8301126121c9576121c861209c565b5b81356121d9848260208601612172565b91505092915050565b6000602082840312156121f8576121f7612092565b5b600082013567ffffffffffffffff81111561221657612215612097565b5b612222848285016121b4565b91505092915050565b6000819050919050565b61223e8161222b565b82525050565b60006020820190506122596000830184612235565b92915050565b6122688161222b565b811461227357600080fd5b50565b6000813590506122858161225f565b92915050565b6000602082840312156122a1576122a0612092565b5b60006122af84828501612276565b91505092915050565b600081519050919050565b600082825260208201905092915050565b60005b838110156122f25780820151818401526020810190506122d7565b60008484015250505050565b6000612309826122b8565b61231381856122c3565b93506123238185602086016122d4565b61232c816120a6565b840191505092915050565b6000602082019050818103600083015261235181846122fe565b905092915050565b600073ffffffffffffffffffffffffffffffffffffffff82169050919050565b600061238482612359565b9050919050565b61239481612379565b811461239f57600080fd5b50565b6000813590506123b18161238b565b92915050565b6000602082840312156123cd576123cc612092565b5b60006123db848285016123a2565b91505092915050565b600080604083850312156123fb576123fa612092565b5b600061240985828601612276565b925050602061241a85828601612276565b9150509250929050565b600081519050919050565b600082825260208201905092915050565b6000819050602082019050919050565b600082825260208201905092915050565b600061246c826122b8565b6124768185612450565b93506124868185602086016122d4565b61248f816120a6565b840191505092915050565b60006124a68383612461565b905092915050565b6000602082019050919050565b60006124c682612424565b6124d0818561242f565b9350836020820285016124e285612440565b8060005b8581101561251e57848403895281516124ff858261249a565b945061250a836124ae565b925060208a019950506001810190506124e6565b50829750879550505050505092915050565b6000602082019050818103600083015261254a81846124bb565b905092915050565b60008115159050919050565b61256781612552565b82525050565b6000602082019050612582600083018461255e565b92915050565b600081519050919050565b600082825260208201905092915050565b6000819050602082019050919050565b6125bd81612379565b82525050565b60006125cf83836125b4565b60208301905092915050565b6000602082019050919050565b60006125f382612588565b6125fd8185612593565b9350612608836125a4565b8060005b8381101561263957815161262088826125c3565b975061262b836125db565b92505060018101905061260c565b5085935050505092915050565b6000602082019050818103600083015261266081846125e8565b905092915050565b61267181612379565b82525050565b600060808201905061268c6000830187612668565b6126996020830186612235565b6126a6604083018561255e565b6126b3606083018461255e565b95945050505050565b6126c58161222b565b82525050565b6126d481612552565b82525050565b6080820160008201516126f060008501826125b4565b50602082015161270360208501826126bc565b50604082015161271660408501826126cb565b50606082015161272960608501826126cb565b50505050565b600060808201905061274460008301846126da565b92915050565b6000604082019050818103600083015261276481856122fe565b90506127736020830184612235565b9392505050565b6000806040838503121561279157612790612092565b5b600061279f858286016123a2565b92505060206127b085828601612276565b9150509250929050565b60006020820190506127cf6000830184612668565b92915050565b600081519050919050565b600082825260208201905092915050565b6000819050602082019050919050565b60808201600082015161281760008501826125b4565b50602082015161282a60208501826126bc565b50604082015161283d60408501826126cb565b50606082015161285060608501826126cb565b50505050565b60006128628383612801565b60808301905092915050565b6000602082019050919050565b6000612886826127d5565b61289081856127e0565b935061289b836127f1565b8060005b838110156128cc5781516128b38882612856565b97506128be8361286e565b92505060018101905061289f565b5085935050505092915050565b600060208201905081810360008301526128f3818461287b565b905092915050565b7f5573657220616c72656164792065786973747300000000000000000000000000600082015250565b60006129316013836122c3565b915061293c826128fb565b602082019050919050565b6000602082019050818103600083015261296081612924565b9050919050565b7f4e487b7100000000000000000000000000000000000000000000000000000000600052602260045260246000fd5b600060028204905060018216806129ae57607f821691505b6020821081036129c1576129c0612967565b5b50919050565b60008190508160005260206000209050919050565b60006020601f8301049050919050565b600082821b905092915050565b600060088302612a297fffffffffffffffffffffffffffffffffffffffffffffffffffffffffffffffff826129ec565b612a3386836129ec565b95508019841693508086168417925050509392505050565b6000819050919050565b6000612a70612a6b612a668461222b565b612a4b565b61222b565b9050919050565b6000819050919050565b612a8a83612a55565b612a9e612a9682612a77565b8484546129f9565b825550505050565b600090565b612ab3612aa6565b612abe818484612a81565b505050565b5b81811015612ae257612ad7600082612aab565b600181019050612ac4565b5050565b601f821115612b2757612af8816129c7565b612b01846129dc565b81016020851015612b10578190505b612b24612b1c856129dc565b830182612ac3565b50505b505050565b600082821c905092915050565b6000612b4a60001984600802612b2c565b1980831691505092915050565b6000612b638383612b39565b9150826002028217905092915050565b612b7c826122b8565b67ffffffffffffffff811115612b9557612b946120b7565b5b612b9f8254612996565b612baa828285612ae6565b600060209050601f831160018114612bdd5760008415612bcb578287015190505b612bd58582612b57565b865550612c3d565b601f198416612beb866129c7565b60005b82811015612c1357848901518255600182019150602085019450602081019050612bee565b86831015612c305784890151612c2c601f891682612b39565b8355505b6001600288020188555050505b505050505050565b6000604082019050612c5a6000830185612235565b8181036020830152612c6c81846122fe565b90509392505050565b7f4e487b7100000000000000000000000000000000000000000000000000000000600052601160045260246000fd5b6000612caf8261222b565b9150612cba8361222b565b9250828203905081811115612cd257612cd1612c75565b5b92915050565b7f4f6e6c7920746865206f776e65722063616e2063616c6c20746869732066756e60008201527f6374696f6e000000000000000000000000000000000000000000000000000000602082015250565b6000612d346025836122c3565b9150612d3f82612cd8565b604082019050919050565b60006020820190508181036000830152612d6381612d27565b9050919050565b7f596f7527726520747279696e6720746f207570646174652061206e6f6e2d657860008201527f697374656e7420706f7374000000000000000000000000000000000000000000602082015250565b6000612dc6602b836122c3565b9150612dd182612d6a565b604082019050919050565b60006020820190508181036000830152612df581612db9565b9050919050565b7f546f6b656e206e6f7420666f756e640000000000000000000000000000000000600082015250565b6000612e32600f836122c3565b9150612e3d82612dfc565b602082019050919050565b60006020820190508181036000830152612e6181612e25565b9050919050565b7f496e73756666696369656e742062616c616e636520666f72207468652074726160008201527f6e73666572000000000000000000000000000000000000000000000000000000602082015250565b6000612ec46025836122c3565b9150612ecf82612e68565b604082019050919050565b60006020820190508181036000830152612ef381612eb7565b9050919050565b6000612f058261222b565b9150612f108361222b565b9250828201905080821115612f2857612f27612c75565b5b92915050565b7f4e487b7100000000000000000000000000000000000000000000000000000000600052603260045260246000fd5b6000612f688261222b565b91507fffffffffffffffffffffffffffffffffffffffffffffffffffffffffffffffff8203612f9a57612f99612c75565b5b600182019050919050565b7f5573657220646f6573206e6f7420657869737400000000000000000000000000600082015250565b6000612fdb6013836122c3565b9150612fe682612fa5565b602082019050919050565b6000602082019050818103600083015261300a81612fce565b9050919050565b7f496e646578206f7574206f6620626f756e647300000000000000000000000000600082015250565b60006130476013836122c3565b915061305282613011565b602082019050919050565b600060208201905081810360008301526130768161303a565b9050919050565b7f4f6e6c7920746865206465706c6f7965722063616e20697373756520746f6b6560008201527f6e73000000000000000000000000000000000000000000000000000000000000602082015250565b60006130d96022836122c3565b91506130e48261307d565b604082019050919050565b60006020820190508181036000830152613108816130cc565b905091905056fea2646970667358221220ee04c7ab9c8e20c99a2bc71460d7bce94badc9383138167f218ad9274927787164736f6c63430008130033",
  "linkReferences": {},
  "deployedLinkReferences": {}
}